:03000000020100FA
:07000B00B287868C878A3260
:1001000031B5512051205120748031F2512090039B
:1001100000511251207540EE75303F7541F0753138
:10012000307542F27532B77543F57533727544F424
:1001300075342A78407930D2AFD2A9758911868C6E
:10014000878AD28C31A031A031A00809868C878A99
:1001500031A031A031A00809868C878A31A031A056
:1001600031A01819868C878A31A031A031A00808E7
:100170000909868C878A31A031A031A031A0C28CB8
:10018000C28731A031A0868C878AD28C31A031A061
:1001900031A031A0080931A031A031A031A0809355
:1001A000740A758D3C758BB0D28E308FFDC28EC2B5
:1001B0008F1470EE2275A038C280C281D282512085
:1001C000C282512075A00CC280C281D2825120C24D
:1001D00082512075A001C280C281D2825120C28288
:1001E000512075A006C280C281D2825120C28251A4
:1001F0002022F5A0C280C281D2825120C282512029
:1002000022F5A0D280C281D2825120C282512051D7
:100210002022C0E0E49360055101A380F7D0E022E2
:08022000C000C001780179FF64
:09022800D9FED8FAD001D0002261
:100300002020524F4C4C494E472054494D45202007
:0103100000EC
:00000001FF
